{
  "contractName": "Attendance",
  "abi": [
    {
      "constant": true,
      "inputs": [],
      "name": "student",
      "outputs": [
        {
          "name": "",
          "type": "address"
        }
      ],
      "payable": false,
      "stateMutability": "view",
      "type": "function"
    },
    {
      "inputs": [],
      "payable": false,
      "stateMutability": "nonpayable",
      "type": "constructor"
    },
    {
      "constant": false,
      "inputs": [
        {
          "name": "_examCode",
          "type": "bytes16"
        },
        {
          "name": "_studentNumber",
          "type": "uint256"
        },
        {
          "name": "_hashedSignature",
          "type": "string"
        },
        {
          "name": "_time",
          "type": "uint8"
        }
      ],
      "name": "sign",
      "outputs": [
        {
          "name": "",
          "type": "uint256"
        }
      ],
      "payable": false,
      "stateMutability": "nonpayable",
      "type": "function"
    }
  ],
  "bytecode": "0x608060405234801561001057600080fd5b5033600360016101000a81548173ffffffffffffffffffffffffffffffffffffffff021916908373ffffffffffffffffffffffffffffffffffffffff1602179055506102d2806100616000396000f30060806040526004361061004c576000357c0100000000000000000000000000000000000000000000000000000000900463ffffffff16806334b8c30614610051578063699450e814610102575b600080fd5b34801561005d57600080fd5b506100ec60048036038101908080356fffffffffffffffffffffffffffffffff1916906020019092919080359060200190929190803590602001908201803590602001908080601f0160208091040260200160405190810160405280939291908181526020018383808284378201915050505050509192919290803560ff169060200190929190505050610159565b6040518082815260200191505060405180910390f35b34801561010e57600080fd5b506101176101db565b604051808273ffffffffffffffffffffffffffffffffffffffff1673ffffffffffffffffffffffffffffffffffffffff16815260200191505060405180910390f35b6000846000806101000a8154816fffffffffffffffffffffffffffffffff0219169083700100000000000000000000000000000000900402179055508360018190555082600290805190602001906101b2929190610201565b5081600360006101000a81548160ff021916908360ff1602179055506001549050949350505050565b600360019054906101000a900473ffffffffffffffffffffffffffffffffffffffff1681565b828054600181600116156101000203166002900490600052602060002090601f016020900481019282601f1061024257805160ff1916838001178555610270565b82800160010185558215610270579182015b8281111561026f578251825591602001919060010190610254565b5b50905061027d9190610281565b5090565b6102a391905b8082111561029f576000816000905550600101610287565b5090565b905600a165627a7a7230582045925919662839647e08fba7d7e4f0b9d68a7125de4cdb0de6e6397c0060536f0029",
  "source": "pragma solidity ^0.4.24;\n\ncontract Attendance {\n\n    bytes16 private examCode; //Nonce-ish to validate student in the class\n    uint private studentNumber;\n    string private hashedSignature; //IPFS direction of screenshot of signature\n    uint8 private time; //Maybe change for confirmed block?\n\n\n    address public student;\n\n    constructor() public {\n        student = msg.sender;\n    }\n\n    function sign(bytes16 _examCode,uint _studentNumber, string _hashedSignature, uint8 _time ) public returns (uint)   {\n        examCode = _examCode;\n        studentNumber= _studentNumber;\n        hashedSignature =_hashedSignature;\n        time = _time;\n        return studentNumber;\n    }\n}\n",
  "sourcePath": "/Users/juansejativa/Documents/Coding/dattendance/contracts/Attendance.sol",
  "compiler": {
    "name": "solc",
    "version": "0.4.24+commit.e67f0147.Emscripten.clang"
  },
  "schemaVersion": "2.0.1",
  "updatedAt": "2018-11-02T19:21:12.002Z"
}