{
  "contractName": "Attendance",
  "abi": [
    {
      "constant": true,
      "inputs": [],
      "name": "student",
      "outputs": [
        {
          "name": "",
          "type": "address"
        }
      ],
      "payable": false,
      "stateMutability": "view",
      "type": "function"
    },
    {
      "inputs": [],
      "payable": false,
      "stateMutability": "nonpayable",
      "type": "constructor"
    },
    {
      "constant": false,
      "inputs": [
        {
          "name": "_examCode",
          "type": "bytes16"
        },
        {
          "name": "_studentNumber",
          "type": "uint256"
        },
        {
          "name": "_hashedSignature",
          "type": "string"
        },
        {
          "name": "_time",
          "type": "uint8"
        }
      ],
      "name": "signAttendance",
      "outputs": [],
      "payable": false,
      "stateMutability": "nonpayable",
      "type": "function"
    }
  ],
  "bytecode": "0x608060405234801561001057600080fd5b5033600360016101000a81548173ffffffffffffffffffffffffffffffffffffffff021916908373ffffffffffffffffffffffffffffffffffffffff1602179055506102b5806100616000396000f30060806040526004361061004c576000357c0100000000000000000000000000000000000000000000000000000000900463ffffffff168063699450e814610051578063a832d081146100a8575b600080fd5b34801561005d57600080fd5b50610066610145565b604051808273ffffffffffffffffffffffffffffffffffffffff1673ffffffffffffffffffffffffffffffffffffffff16815260200191505060405180910390f35b3480156100b457600080fd5b5061014360048036038101908080356fffffffffffffffffffffffffffffffff1916906020019092919080359060200190929190803590602001908201803590602001908080601f0160208091040260200160405190810160405280939291908181526020018383808284378201915050505050509192919290803560ff16906020019092919050505061016b565b005b600360019054906101000a900473ffffffffffffffffffffffffffffffffffffffff1681565b836000806101000a8154816fffffffffffffffffffffffffffffffff0219169083700100000000000000000000000000000000900402179055508260018190555081600290805190602001906101c29291906101e4565b5080600360006101000a81548160ff021916908360ff16021790555050505050565b828054600181600116156101000203166002900490600052602060002090601f016020900481019282601f1061022557805160ff1916838001178555610253565b82800160010185558215610253579182015b82811115610252578251825591602001919060010190610237565b5b5090506102609190610264565b5090565b61028691905b8082111561028257600081600090555060010161026a565b5090565b905600a165627a7a72305820db3508902ac02164347170d74c0758cfec292830f839d1efb4670d7d053067d20029",
  "source": "pragma solidity ^0.4.24;\n\ncontract Attendance {\n    \n    bytes16 private examCode; //Nonce-ish to validate student in the class\n    uint private studentNumber;\n    string private hashedSignature; //IPFS direction of screenshot of signature\n    uint8 private time; //Maybe change for confirmed block?\n    \n    \n    address public student;\n    \n    constructor() public {\n        student = msg.sender;\n    }\n    \n    function signAttendance(bytes16 _examCode,uint _studentNumber, string _hashedSignature, uint8 _time ) public    {\n        examCode = _examCode;\n        studentNumber= _studentNumber;\n        hashedSignature =_hashedSignature;\n        time = _time;\n    }\n}\n",
  "sourcePath": "/home/js/Develop/dattendance/contracts/SignAttendance.sol",
  "compiler": {
    "name": "solc",
    "version": "0.4.24+commit.e67f0147.Emscripten.clang"
  },
  "schemaVersion": "2.0.1",
  "updatedAt": "2018-11-02T05:14:03.634Z"
}